:020000040800F2
:2000000000500020A57E0008ED7E0008ED7E0008ED7E0008ED7E0008ED7E00080000000006
:20002000000000000000000000000000ED7E0008ED7E000800000000ED7E000843660008B6
:20004000ED7E0008ED7E0008ED7E0008ED7E0008ED7E0008ED7E0008356800083B6800089E
:2000600041680008476800084D680008ED7E0008ED7E0008ED7E0008ED7E0008ED7E00081C
:20008000ED7E0008ED7E0008ED7E0008ED7E0008ED7E0008ED7E0008ED7E00085368000878
:2000A000ED7E000895630008ED7E0008A9630008AD630008C1630008D56300083D3100084C
:2000C000493100085531000861310008ED7E0008ED7E0008017500081975000835750008CA
:2000E0007B680008ED7E0008ED7E000800000000000000000000000000000000000000002F
:2001000000000000000000005FF808F1034613F8012B002AFBD1181A0138704710B5054CE1
:20012000237833B9044B13B10448AFF300800123237010BD0801002000000000C08C0008B6
:2001400008B5034B1BB103490348AFF3008008BD000000000C010020C08C0008704790F989
:200160002C30002BBABF90F82900C00900207047024690F82C3013F040001CBF92F8290031
:20018000C0F380107047024690F82C3013F020001CBF92F82900C0F340107047024690F8FE
:2001A0002C3013F010001CBF92F82900C0F300107047024690F82C3013F008001CBF92F82C
:2001C0002900C0F3C0007047024690F82C3013F004001CBF92F82900C0F3800070470246D9
:2001E00090F82D3013F010001CBF92F82A00C0F300107047024690F82D3013F008001CBFEB
:2002000092F82A00C0F3C000704700000122014B1A707047C303002010B50446034B0449C0
:200220000360044807F0E5FC204610BD54950008D88C0008F406002010B50446FFF7ECFF9D
:200240002046302106F027F9204610BD012A02D1016000207047022A05D0032AF9D0002A47
:20026000F7D10260F5E70B680360F2E703681847012A02D1016000207047022A05D0032A9B
:20028000F9D0002AF7D10260F5E70B680360F2E7036808681847836810B5044613B1032299
:2002A00001469847204610BDCBB2322B08D80E4A01F4E06152F823301943C0F8881070479D
:2002C00001F0C002C02A0CD1CF2B0AD8074B01F03F0253F82220044B01F4E06153F8223095
:2002E000EAE74FF0FF31E8E7B49B0008749B0008CBB2322B08D80E4A01F4E06152F823309C
:200300001943C0F88410704701F0C002C02A0CD1CF2B0AD8074B01F03F0253F82220044BC8
:2003200001F4E06153F82230EAE74FF0FF31E8E7B49B0008749B0008036810B51B6B04466D
:2003400098474A2808D10423237123682046D3F8E0309847012010BD0020FCE770B5067B76
:20036000044616B1FFF7E8FF70BD012303730369ABB1D0E905230B490B4807F03AFC2069C2
:2003800002F0D8F9D4E904512846FFF7B1FF2846A169FFF789FF3146284602F057FC2046EE
:2003A000E0E700BFE88C0008F406002038B52C2007F0BCFE01280446084D0CD12B78012BC3
:2003C00003D00749074807F001FC00210E2007F073FE2C7038BD0121F8E700BFC0030020CC
:2003E000F68C00087402002010B5064B42F210705C7907F08FFD2146BDE81040082007F040
:200400008FBD00BF2401002038B5074D6C79044484F3080442F2107007F07CFD21460820E8
:2004200007F07EFD6C7138BD2401002070B50A4EB47A0444A4F11403EB2B254684BF0025AB
:200440002C4642F2107007F065FD2946282007F067FDB47270BD00BF2401002070B50E4A37
:200460000E4913780E4E013303F00303CC5C1370B27A42F210701444A4F11403EB2B254601
:2004800084BF00252C4607F045FD2946282007F047FDB47270BD00BF5C02002000000020A7
:2004A0002401002000212D2007F006BE01212D2007F002BE70B505460C460026AE4205DBF0
:2004C0002146BDE870402D2007F0F6BDFFF7EAFF4FF4C87007F06AFEFFF7E8FFC82007F0F4
:2004E00065FE0136EAE700000022044B83F8402083F83F2083F83E20704700BF14020020E6
:200500000F4982B0ADF8040091F83E001E2815D891F84030BDF80420013021F813201F221E
:200520000133DBB2B3FBF2F281F83E000120C2EB42129B1A81F8403002B070470020FBE786
:200540001402002007B5ADF804000198FFF7D8FFD8B90F49BDF8042091F8403021F8132093
:200560001F220133DBB2B3FBF2F0C0EB40101B1A81F8403091F83F300133DBB2B3FBF2F285
:20058000C2EB42129B1A81F83F3003B05DF804FB1402002037B5144B1B7823B903B0BDE86E
:2005A0003040FFF7A1BF114C8DF80400A5788DF80510EB0642BFE37843F00803E370019861
:2005C000FFF79EFF68B9AA0742BFE37843F00103E370EB0705D5019803B0BDE83040FFF7AD
:2005E000B1BF03B030BD00BFC10300202401002037B5104A92F83E30D3B192F83F40013BFC
:20060000611CC9B282F83F1012F8140002EB440465781F24B1FBF4F482F83E302B46C4EB0A
:200620004414091B82F83F1040EA032003B030BD1846F9E71402002038B50024114B124D48
:20064000C3F8D440A3F8D840022115F8010B013407F0D4FC072CF7D100240C4D002115F83A
:20066000010B013407F0CAFC082CF7D10024084D022115F8010B013407F0C0FC0C2CF7D1E3
:2006800038BD00BF340100202C970008249700081897000808B507F049FD003818BF0120E2
:2006A00008BD0000D222064B9A700A229A710522DA71FF225A7100229A72DA72704700BFA1
:2006C000240100202DE9F041D0F814E004460F4616461D46BEF1000F04D0F446BDE8F041D2
:2006E000007C6047406818B94FF0FF30BDE8F081217C02F061F86068394603681B689847DE
:20070000606802F0DEF90028EED12A46217C606802F0D4F960682A4603683146DB69984790
:20072000281A18BF4FF0FF30E0E7002307B58DF807300DF107020123FFF7C4FF431C18BFB6
:200740009DF8070003B05DF804FB10B51446FFF7ECFF431C0ED0C117C4F12002A4F1200352
:20076000E04001FA02F2104321FA03F3184300F0010010BD0020FCE708B5032200210C30AB
:20078000FFF7E3FF08BD10B500F10C04012103222046FFF7DAFF014620B905222046FFF7D7
:2007A000D4FF10BD0020FCE708B5142931D8DFE801F00B11131517303030303030191C1E0D
:2007C00020222426282B2E00002280210C30FFF7BCFF08BD0122F8E70222F6E70322F4E794
:2007E0000422F2E700229021F0E70122FBE70222F9E70322F7E70422F5E70522F3E7072218
:20080000F1E700229121E1E702221821DEE70622E9E70020DDE7036810B59B68044698470A
:2008200028B1A42104F10C00FFF77FFF10BD4FF0FF30FBE708B501210C30FFF776FF4011B1
:20084000431E5842584108BD10B50848FFF7E3FF431C044607D00548FFF7ECFF44EAC014A2
:20086000034BDC7210BD0024FAE700BF900300202401002008B501210C30FFF756FF40119C
:20088000831E5842584108BD38B500F10C05044648212846FFF749FF492184F828002846F5
:2008A000FFF743FF4A2184F829002846FFF73DFF94F8293094F828201B0284F82A0043EAA7
:2008C0000243C0B20021184338BD032108B50C30FFF72BFFC0B208BD272108B50C30FFF745
:2008E00024FFC0F3810008BD08B527210C30FFF71CFF431C0CBF002000F0030008BD08B5CB
:2009000062210C30FFF711FF431C0CBF002000F01F0008BD642108B50C30FFF706FF00F08B
:20092000030008BD08B524210C30FFF7FEFE431C1FBF00F0070000EB800000EB8000800035
:200940000CBF002000F6282008BD162108B50C30FFF7EBFE00F0070008BD08B5132972D89B
:20096000DFE801F00A18274547717171717171596567696B7375777982210C30FFF7D5FECB
:2009800000F01F0000EB800000EB8000800000F2DC5059E083210C30FFF7C7FE431C52D07F
:2009A00000F07F031846462B4FEA8303184414DC0BE084210C30FFF7B8FE00F07F03462B90
:2009C00018464FEA830204DC1044400000F5FA703AE0473B102B104402D88000C83804E0BF
:2009E00000EB80008000A0F5E15080B22CE08521D1E786210C30FFF798FE411C23D000F0FB
:200A00001F00192837D000EB800000EB8000800000F5AF6018E092210C30FFF786FE00F0C4
:200A20001F0000EB800000EB80008000CEE79321F2E79421F0E79521EEE796210C30FFF7FF
:200A400074FE421CEBD1002008BD9721F6E79921F4E79A21F2E76A210C30FFF766FE431CE7
:200A6000F1D000F0070000EB800000EB8000800000F62820E8E74FF49660E5E738B500F178
:200A80000C0500212846FFF750FE012104462846FFF74BFE240204F4F85400F01F0020437D
:200AA00038BD38B5036805469B68984708B9002038BD0C3534212846FFF737FE0446352117
:200AC0002846FFF732FE621CF1D0431CEFD0240204F4F854204380B2EAE773B586690446F4
:200AE0000D468DF8072036B10123007C0DF10702B04702B070BD4068B0B1217C01F05CFEA2
:200B00006068294603681B6898476068012203680DF107015B689847606801F0D2FF003811
:200B200018BF01204042E4E74FF0FF30E1E738B500F10C040D4620466921FFF7F6FD431CC1
:200B40000BD000F0C80242EA051242F005026921204602F0FD02FFF7C0FF38BD08B5FFF746
:200B6000A1FCBDE8084001210148FFF7E0BF00BF9003002010B51348FFF7FEFD00B311485C
:200B8000FFF749FE04462D2007F0D0FA631E1F2B01460AD80120FFF78DFC0A48FFF74AFE9C
:200BA00070B1BDE81040FFF7D9BFA4F12103202B01D80220EFE7423C222CEED80320EAE736
:200BC00010BD00BF90030020504BF0B45C6805680173002C00F09880002D00F09580AE7866
:200BE0004B4A013E28789278042E2ED8DFE806F025031D21290052067FD4002800F084802C
:200C000002290FD1A0F120035F2B0AD9A0F10803022B06D9D42804D000F14C03DBB2032B35
:200C20006ED801212346F0BC18475306E5D5A22064E05706E1D5A32060E05606DDD5A420D7
:200C40005CE05506D9D5A52058E0C12809D1012901BF93F8DB6083F8DA1086F0010683F882
:200C6000DB601206C9D593F8D72012B993F8D82032B1A0F14102192A01D96878BDE7012238
:200C800093F8DB501DB1A0F14105192D32D993F8D65015B993F8DD3023B301290BD100F0C5
:200CA000FD032C2B30D020282ED042282CD0492828D1D120B6E703299FD12C2804D16FF015
:200CC0000900F0BCFFF7A0BB2E2801D10A20F8E7202804D04228EAD1F0BCFFF74BBFF0BC44
:200CE000FFF7BCBB002A88D1A0F14103192B84D82030C0B2022995D193E7A120022991D174
:200D000002218FE700288DD1F0BC7047340100202401002038B5037B04460D46032B00F28F
:200D20009480DFE803F002304158002900F08D8003689A78474B1AB101211A4482F8D4103C
:200D400093F8DA1093F8D62089B1284693F8DC50002D4DD193F8D710002977D01AB140F214
:200D60000111A3F8DC10114600284AD04CE093F8D8000028EAD022B140F20111A3F8DA1034
:200D8000E3E71046E2E707F00FFA6368C01AB0F5967F05D902212046BDE83840FFF714BFBE
:200DA000002D52D10321F6E70029FBD007F0FCF96368C01AB0F5967F47D907F0F5F9A36893
:200DC000C01A642841D902212046FFF7FDFE07F0EBF9A06039E003689A7822B11D4B134416
:200DE000002283F8D42000212160D4E7B1B90FE0A0B993F8D71021B9294693F8D80000280D
:200E0000F4D00120A3F8DA0041B993F8D71011B993F8D81011B10121A3F8DC101AB983F816
:200E2000DA2083F8DC201A6832B193F8DA0093F8DC1000B901B1904701212046FFF7C4FE7E
:200E400007F0B2F900236060A36038BD0028DCD10146D2E734010020FF222DE9F04F7D4BAD
:200E600085B01A7007F0A0F97B4CD4F8D030C01A102840F2A8800026784B794DDFF8E49129
:200E8000029303954FF0000BC846DA46029B012113F8017B3846029307F0B0F80021384616
:200EA00007F00AF9704B0193019B13F8010B0193FFF7F0FB012380F0010111F0FF0103FA2D
:200EC0000BF200F083809E4209D1BBF1040F01BF604B93F800C02CF0100C83F800C02AEA6C
:200EE000020A4FF0000C5C4B9A68424500F0AC800CF1010CBCF10A0F03F11403F4D140B9B6
:200F0000554A9168002972D001300A2802F11402F7D10BF1010BBBF1070F08F11808C3D123
:200F2000039B012103F801AB38460393013607F0C3F80021384607F061F8082E09F1030922
:200F4000A0D14FF0000B4FF00109DFF82081484E404FDFF804A118F8010BFFF79BFBBBF120
:200F6000070F80F00101C9B250D82B7800294AD003F07F032B70A4460023DCF80820B24253
:200F80005CD001330A2B0CF1140CF6D140B923469A68002A47D001300A2803F11403F7D1FD
:200FA0000BF1010B5FFA8BFBBBF10C0F06F1030605F10105CFD1FF22294B1A7207F0F4F8E3
:200FC000254BC3F8D00005B0BDE8F08F012E09D1BBF1040F01BF1F4B93F800C04CF0100CA8
:200FE00083F800C04AEA02025FFA82FA79E7142358432218117501210830C2F808802044B7
:20100000FFF788FE85E763F07F03B3E7ABF10802D2B23B7809FA02F219B123EA02033B701E
:20102000A9E71343FBE7142301215843231808309E601A752044FFF76DFEB1E758B2142356
:2010400003FB00A00830F6E7142303FB0C400830D6E700BF0400002034010020249700086C
:201060005D020020709600082C970008189700084C960008032910B5044602D9042904D060
:2010800010BDBDE81040FFF752BD0C3469212046FFF74BFB431CF3D000F0F90040F00102DF
:2010A00069212046FFF719FDEAE770B504460D461646FFF73AFB431C0CD0012303FA06F2C6
:2010C000024329462046D2B2FFF707FDB0FA80F0400970BD0020FCE708B5002210210C3099
:2010E000FFF7E3FF08BD000038B51348FFF793FB14280446114D18D82B6801332B60FFF76B
:20110000D5F9012C0BDC02210B48FFF710FD2CB92B68032B02D90848FFF7DEFF38BD0321B7
:20112000BDE838400448FFF702BD00242C60FFF7B9F92146F4E700BF90030020580200200B
:2011400008B500210348FFF7F2FCBDE80840FFF7CBBF00BF9003002008B5002268210C30FF
:20116000FFF7A3FF08BD08B5022230210C30FFF79CFF08BD08B5002230210C30FFF795FF58
:2011800008BD08B5032230210C30FFF78EFF08BD08B5012230210C30FFF787FF08BD08B568
:2011A000042230210C30FFF780FF08BD08B513292ED8DFE801F00A101214162D2D2D2D2D54
:2011C0002D181B1D1F212325272A002280210C30FFF76BFF08BD0122F8E70222F6E703226D
:2011E000F4E70422F2E700229021F0E70122FBE70222F9E70322F7E70422F5E70522F3E75C
:201200000722F1E700229121E1E702221821DEE70020DFE708B5002226210C30FFF745FF8D
:2012200008BD70B50446002500F10C06FF2248213046FFF752FCFF224921304684F8285019
:20124000FFF74BFCFF224A21304684F82950FFF744FC84F82A5070BD642238B5B1FBF2F5FB
:2012600002FB15139BB22BB11449154806F0C1FC002038BD40F62723994203D840F62822E8
:201280001049F2E740F6E442914201D90E49ECE700F10C0424212046FFF747FA431CE7D0F0
:2012A00000F0F800A5F11A02024324212046D2B2FFF713FCB0FA80F04009DAE7098D000859
:2012C000F40600202B8D0008638D000870B504460D461646FFF729FA431C0DD0012303FAA8
:2012E00006F220EA020229462046D2B2FFF7F5FBB0FA80F0400970BD0020FCE708B5012236
:2013000030210C30FFF7E2FF08BD08B5002230210C30FFF7DBFF08BD08B5042230210C3033
:20132000FFF7D4FF08BD08B5032230210C30FFF7CDFF08BD08B5022230210C30FFF7C6FF00
:2013400008BD08B5002268210C30FFF7BFFF08BD38B5036804465B6D0D46984728B12D49C0
:201360002D4806F046FC002038BD142DFBD801A353F825F0C9130008D7130008DB130008C7
:20138000DF130008E313000867130008671300086713000867130008671300086713000849
:2013A000E7130008ED130008F1130008F5130008F9130008FD13000801140008051400089D
:2013C0000B140008111400080022802104F10C00FFF77CFFC8E70122F7E70222F5E70322AF
:2013E000F3E70422F1E700229021EFE70122FBE70222F9E70322F7E70422F5E70522F3E75D
:201400000722F1E700229121E0E702221821DDE70622E9E79B8D0008F40600202DE9F8437C
:201420000C460B462C49161E05462C4A2C4808BF0A462C4906F0DDFB14F0FF0710D005F1F1
:201440000C0740213846FFF770F9CEB344EA0002D2B23846402185F82B20FFF73EFB0746E3
:2014600014F47F4F13D005F10C08412140464FEA1429FFF75AF936B349EA00095FFA89F209
:201480004121404685F82C20FFF727FB074314F47F0F10D005F10C0842214046240CFFF7AA
:2014A00044F9A6B10443E2B24221404685F82D20FFF713FB0743B7FA87F04009BDE8F8832B
:2014C00020EA0402C4E720EA0902D2B2D8E720EA0402D2B2E8E700BFEC8D0008E58D0008DC
:2014E000F4060020F48D000808B511460022FFF795FF08BD08B511460122FFF78FFF08BD44
:2015000038B500F10C040D4620462721FFF70DF9431C0CD000F0F30242EA8502272120465F
:20152000D2B2FFF7DAFAB0FA80F0400938BD0020FCE738B500F10C040D4620462721FFF71D
:20154000F4F8431C0BD000F0FC0045EA000227212046FFF7C2FAB0FA80F0400938BD002070
:20156000FCE7102938B50D4601D9002038BD00F10C0462212046FFF7D8F8431CF5D000F05C
:20158000E00045EA000262212046FFF7A6FAB0FA80F04009EAE7052938B50D4601D900201F
:2015A00038BD00F10C0464212046FFF7BEF8431CF5D000F0FC0045EA000264212046FFF77C
:2015C0008CFAB0FA80F04009EAE738B500F10C050C4628461621FFF7A8F8431C0CD000F0AA
:2015E000F80004F00702024316212846FFF775FAB0FA80F0400938BD0020FCE738B500F16E
:201600000C050C4628468321FFF78FF8431C11D0A4F5FA73B3F52F7F00F0800018D80A22B0
:20162000B4FBF2F302FB1344A4B22CB11049114806F0DFFA002038BDA3F132020243832148
:201640002846D2B2FFF749FAB0FA80F04009F2E7A4F2C443B3F5A07FECD81422B4FBF2F331
:2016600002FB1344A4B2002CE0D103F10A02E5E7048E0008F406002038B500F10C050C4622
:2016800028468421FFF751F8431C12D0A4F5FA739AB2B2F52F7F00F0800018D80A22B4FBD5
:2016A000F2F102FB114189B229B11949194806F0A0FA002038BDB3FBF2F202438421284691
:2016C000D2B2FFF70AFAB0FA80F04009F2E7A4F2C443B3F5A07F0AD81422B4FBF2F302FB43
:2016E0001344A4B2002CE0D103F10A02E5E7A4F5C863B3F5E16FDCD86422B4FBF2F302FB0D
:201700001344A4B2002CD0D103F14802D5E700BF268E0008F406002038B500F10C050C467F
:2017200028468521FFF701F8431C11D0A4F5FA73B3F52F7F00F0800018D80A22B4FBF2F3EA
:2017400002FB1344A4B22CB11049114806F051FA002038BDA3F13202024385212846D2B255
:20176000FFF7BBF9B0FA80F04009F2E7A4F2C443B3F51B7FECD81422B4FBF2F302FB1344C2
:20178000A4B2002CE0D103F10A02E5E7268E0008F4060020642238B5B1FBF2F302FB13134D
:2017A0009BB20C4623B11E491E4806F022FA0DE0B1F5966F12D0B1F5AF6F09D24FF4AF6369
:2017C0004FF496621849174806F013FA002038BD40F67462914201D91449E5E700F10C0512
:2017E00086212846FEF7A1FF431CEFD0B4F5966F1EBF6423A4F5AF64B4FBF3F400F0E002FB
:2018000018BF22434FF0860128460CBF42F01902D2B2FFF762F9B0FA80F04009D7E700BF8B
:20182000098D0008F4060020478E0008738E000870B56426B1FBF6F306FB13139BB20C4600
:2018400033B132461549164806F0D3F9002070BDB1F5FA7F03D24FF4FA721249F3E740F653
:20186000AC52914201D91049EDE700F10C0596212846FEF75AFF431CE8D0A4F5FA74B4FB4E
:20188000F6F400F0E00044EA000296212846D2B2FFF723F9B0FA80F04009D8E7098D0008E3
:2018A000F4060020998E0008C98E000870B56426B1FBF6F306FB13139BB20C4633B132461A
:2018C0001449154806F095F9002070BDB1F5FA7F03D24FF4FA721149F3E740F64852914203
:2018E00001D90F49EDE700F10C0599212846FEF71CFFA4F5FA74B4FBF6F400F0E0002043D5
:20190000C2B299212846FFF7E8F8B0FA80F04009DBE700BF098D0008F4060020F98E00082A
:20192000298F0008642238B5B1FBF2F502FB15139BB22BB11349144806F05BF9002038BD7C
:2019400040F62723994203D840F628220F49F2E740F6E4429142F9D800F10C046A212046AE
:20196000FEF7E3FE431CE9D000F0F800A5F11A0202436A212046D2B2FFF7AFF8B0FA80F06E
:201980004009DCE7598F0008F4060020918F0008036870B55B6D05460E461446984728B100
:2019A0009B499C4806F025F9002070BD142EFBD801A353F826F000BF0D1A00085F1A000875
:2019C000691A0008731A00087D1A0008A9190008A9190008A9190008A9190008A919000856
:2019E000A9190008871A0008D11A0008191B0008631B0008AD1B0008AD1B0008B71B000845
:201A0000B71B0008C11B0008CB1B00086421B4FBF1F301FB13439BB213B164227E4906E06C
:201A200040F2DB539C4206D840F2DC527B49794806F0DFF8B8E740F64852944201D97849F8
:201A4000F5E7A4F2DC52B2FBF1F28221D2B205F10C00FFF742F8B0FA80F04009A5E72146A7
:201A60002846FFF7CBFDA0E721462846FFF704FE9BE721462846FFF74FFE96E721462846FA
:201A8000FFF788FE91E76426B4FBF6F306FB13439BB2002BC1D1B4F5FA7F03D24FF4FA7229
:201AA0006049C4E740F6AC52944201D95E49BEE70C3592212846FEF738FEA4F5FA74B4FB5F
:201AC000F6F4922100F0E0022243D2B22846C0E76426B4FBF6F306FB13439BB2002B9CD13B
:201AE000B4F5FA7F03D24FF4FA7250499FE740F6AC52944201D94E4999E70C3593212846C3
:201B0000FEF713FEA4F5FA74B4FBF6F400F0E00222439321D2B2D9E76426B4FBF6F306FBCD
:201B200013439BB2002B7FF478AFB4F5FA7F03D24FF4FA723F497AE740F6AC52944201D9CA
:201B40003D4974E70C3594212846FEF7EEFDA4F5FA74B4FBF6F400F0E00222439421D2B250
:201B6000B4E76426B4FBF6F306FB13439BB2002B7FF453AFB4F5FA7F03D24FF4FA722F4946
:201B800055E740F6AC52944201D92D494FE70C3595212846FEF7C9FDA4F5FA74B4FBF6F4B9
:201BA00000F0E00222439521D2B28FE721462846FFF73EFEF9E621462846FFF777FEF4E63E
:201BC00021462846FFF7AEFEEFE63222B4FBF2F602FB16439BB2002B7FF420AFB4F5FA7F9C
:201BE00003D24FF4FA72174921E7B4F5AF6F03D94FF4AF6214491AE70C3598212846FEF747
:201C000094FD0A3E00F0E00232439821D2B25DE7E48F0008F4060020098D00082A9000082E
:201C20005190000878900008A8900008D89000080891000838910008689100089891000857
:201C4000C8910008F8910008299200082DE9F043012185B00D2006F0D1F900210D2006F0FE
:201C60002BFA0A20FEF71EFD06F0A0FA06224FF4E131774805F01AFF764B77495A6E0024BE
:201C8000C1F884201B6E7448C1F8883000231F211A4600F0E0FF42F210716F4800F072FDD4
:201CA0006E4B694600936E4B6B4803936D4B0194029300F089FD6846FEF7EDFA6A4F6B4BD6
:201CC0006B4E6946644801946A4C00930397029600F0AAFD6846FEF7DEFA94F80C80B8F10D
:201CE000000F00F092802046FEF726FB002840F0A3806149564805F069FF00212C2006F0D4
:201D00007DF901212D2006F079F900212D2006F0D3F901210E2006F071F901210E2006F050
:201D2000CBF942F2107006F0F5F86421082006F0F7F8FEF781FC514B514A6FF0DE005A6016
:201D4000FEF762FB01210D2006F0B6F94FF42F614848FFF781FA4748FFF7D0FA4548FFF797
:201D6000FBF94448FFF7FFF94248FFF703FA4148FFF707FA04213F48FFF77CF90221292075
:201D800006F03CF9002301933E4B6946032229200093CDE9026705F0CFFF6846FEF77BFA2E
:201DA0004FF0FF3200233348FFF79EFB3148FFF738FA354A00232F48FFF79CFB1A21334889
:201DC000FEF7B3FC421C05D000F00F021A212F48FEF783FE1A212D48FEF7A7FC431C07D085
:201DE00000F0F00040F001021A212848FEF775FE0022274B1A600122264B1A70FEF724FD7B
:201E000005B0BDE8F043FFF76FB901231B214FF01A09214D23732846C4E905192561FEF79D
:201E200067FA49462846FEF73FFA4146284600F00DFF3423237756E70122184B0D481A7092
:201E4000FEF743FD16490246014805F0D2FE54E774020020B49B0008A8040020E524000893
:201E600091020008710200086D020008F12500084D020008900300205A9200083401002064
:201E8000950500080D02000800FC18009C0300208C030020C1030020C4030020C203002057
:201EA0006F92000870B516460546FEF73EFC044631462846FEF739FC621C07D0431C05D03C
:201EC000240204F47C54204380B270BD0020FCE7036810B5DB680446984728B13922382126
:201EE00004F10C00FFF7DEFF10BD08B53B223A210C30FFF7D7FF08BD10B55A495A4805F000
:201F00004BFE5A48FEF796FC594C5A49002818BF2146554805F05AFE5749534805F03CFE4D
:201F20005248FEF7A7FC5349002818BF21464E4805F04CFE51494C4805F02EFE012150488F
:201F4000FEF7F3FB4B4B400914BF19462146464805F03CFE4B49444805F01EFE4348FEF7B8
:201F600012FC4449002818BF21463F4805F02EFE45493D4805F010FE052200214048FEF7DD
:201F8000E4FB3C49002818BF2146374805F01EFE3E49354805F000FE01213948FEF7C5FB98
:201FA000431C5DD000F00700052808D8DFE800F003505254565836492B4805F007FE3549C9
:201FC000294805F0E9FD2948FEF76BFD0A220146254805F05AFE3049234805F0F7FD2F4975
:201FE000214805F0D9FD2148FFF772FF0A2201461D4805F04AFE28491B4805F0E7FD2849AA
:20200000194805F0C9FD1948FFF76FFF0A220146154805F03AFE2049134805F0D7FD1348FA
:20202000FEF7AAFB78B11F490F4805F0B5FD0F48FEF7F1FB0A2201460B4805F026FE1A49FD
:20204000094805F0C3FDBDE81040074805F0ACBD1649B1E71649AFE71649ADE71649ABE708
:202060001649A9E78292000874020020900300207B9200087F9200088E9200089B92000881
:202080009C030020A6920008B0920008BC920008CE9200081D930008608D00082D930008C4
:2020A0003D9300084F93000862930008D9920008E4920008F4920008059300081193000896
:2020C000A64B73B51B78002B00F0B58106F06CF8A34C2368C01A44F62063984212D906F0DD
:2020E00063F820609F48FEF796FB0446601C00F0A4819C48FEF79EFB44EAC014FEF7F4FF61
:20210000994BDC72994B1A78002A00F094810022944C1A702046FEF7B7FB0546944995484A
:2021200005F03AFD10222946924805F0B0FD9249904805F031FD022229468E4805F0B4FD71
:2021400094F92B30002B07DA94F92830002B03DA8A49884805F03AFD94F82B3059060AD5AA
:2021600094F828305A0606D58549824805F02EFD7C48FEF7B1FF94F82B309B0607D594F82F
:2021800028309E0603D57F497A4805F01FFD94F82B301D0707D594F82830180703D57A494B
:2021A000744805F013FD94F82B30990707D594F828309A0703D575496E4805F007FD94F8A5
:2021C0002B30DB0707D594F82830DE0703D57049684805F0FBFC6348FDF7C1FF18B16D4912
:2021E000644805F0F3FC5F48FDF7C2FF28B16A49604805F0EBFCFEF7A3FF5A48FDF7C3FFF4
:2022000070B15848FEF707FB451C08BF0020564B18BF40F08000D8726049564805F0D6FC3E
:202220005048FDF7BBFF40B100224F4B5C495148DA7205F0CBFCFEF783FF4A48FDF7B9FFB0
:2022400018B358494B4805F0C1FC5749494805F0A3FC04230025194654480DEB030201952E
:20226000FEF730FA01AE0A2216F8011B414805F019FD01354E493F4805F08EFC042DF2D1DF
:202280003C4805F091FCFFF737FE3648FDF79CFF90B14849374805F099FC00210D2005F0E2
:2022A0000BFF00210E2005F007FF2E480421FEF7E1FE2C48FEF710FF94F82C30980707D580
:2022C00094F82930990703D53B492A4805F07EFC94F82C30DA0707D594F82930DB0703D5F8
:2022E0003649244805F072FC94F82D305E0607D594F82A305D0603D531491E4805F066FC0F
:2023000094F82D30980607D594F82A30990603D52C49184805F05AFC1248FDF760FF80B1FF
:202320001048FEF778FA421C08BF00200E4B18BF40F08000D87224490E4805F047FCFEF77F
:20234000FFFE0848FDF756FF00284DD00548FEF762FA431C08BF0020034B37E0C203002074
:202360008C0300209003002024010020C30300206493000874020020739300087993000819
:202380008D930008A1930008AE930008C9930008E2930008FC9300080994000816940008C1
:2023A000229400082E940008409400089C03002057940008599400086A9400087A940008F6
:2023C0008A9400089E940008B594000818BF40F08000D8721A491B4805F0F8FB1A48FEF776
:2023E000CBF908B1FEF7BAFB94F82D305E0707D594F82A305D0703D51449124805F0E6FBDD
:2024000094F82D30980707D594F82A30990703D50F490C4805F0DAFB94F82D30DA0707D5DE
:2024200094F82A30DB0703D50A49064805F0CEFB0548FEF7F6FE02B070BD002460E600BF5F
:20244000C59400087402002090030020D6940008EE9400080295000808B5FFF731FEFEF760
:20246000FBFCFDF7A3FFBDE808400A2005F09EBE07B51A221B210F4800F0F6F800220521B6
:202480000D4B0E48C3E908221A739A600C4A19711A600C4A17211A611622C3E9051234227D
:2024A0001A77332309220A21009305F0ADF903B05DF804FBC403002090030020740200207A
:2024C00054950008A804002008B50448FDF7A4FEBDE80840024800F041B900BF900300200D
:2024E000C403002037B5394800F098F800282BDD0024364800F092F8A8B9354C9DF8003015
:20250000207060700220334903F07F03043B9DF900200870092B17D8DFE803F03718161683
:20252000161025324553294800F07CF804F108036B4403F8080C84F00104DAE7FEF758F874
:20254000C0F307232370607003B030BD002A224D04DA9DF801306B71FDF746FF052323708E
:202560006B796370F0E7002A1B4D05DA9DF801300020AB72FDF75AFF0A232370AB7AF0E750
:202580000B232370144BDB7AEBE7144B93F8DD2093F8DB305B0143EA8213114A92F83E2016
:2025A00013432370D0E70C2323700E4B0E481A68C4F801205A681B7A426003720A230B7095
:2025C000C2E70D232370094B1B78CAE7A80400206702002066020020240100203401002080
:2025E000140200205D0200206802002004000020064B1A78531E092B03D80549054800F08A
:20260000B5B90021034800F090B900BF6602002067020020A804002000207047028BC08A5D
:20262000101A70470346C28A018B914281BF0169885C0132DA8298BF4FF0FF307047028B9F
:20264000C38A9A4286BF0269D05C4FF0FF307047806DD0F8DC302BB10023D43020F8B23C86
:20266000C36818477047000070B54FF47A730E460021C0E90113034615462B4A044643F8F4
:20268000C42BC0F8C4109C22C3E90111C0E93411C0E93611C0F8E010283005F017FFF3B2B5
:2026A000322B19D8214A06F4E06652F823301E43EBB2322BC4F8846022D81C4A05F4E065EB
:2026C00052F823301D4300232046C4F88850E36123842361A38270BD06F0C002C02A0CD1A0
:2026E000CF2B0AD8124B06F03F0253F822200F4B06F4E06653F82230D9E74FF0FF36D7E7B4
:2027000005F0C002C02A0CD1CF2B0AD8084B05F03F0253F82220054B05F4E06553F822301E
:20272000D0E74FF0FF35CEE73C970008B49B0008749B000838B50446283000F055FBE06959
:2027400018B105F05BFD0023E36100252069258410B105F053FD2561A58238BD38B50546C5
:202760000446074B45F8D43BFFF7E4FF2846FDF792FD04F1C400FDF78EFD204638BD00BF55
:202780003C97000838B5044600F12805284600F069FB94F8BE304BB92846054900F062FCBF
:2027A0002846BDE83840034900F055BC38BD00BF51260008AD2800080123994080F8243068
:2027C00000238176438470470023F0B587B002AC02930593C4E901338B6805460E460BB356
:2027E000022220469847D6E9023794E80300CDE9000105F1C40292E8030084E80300DDE9D4
:20280000000182E80300D5F8CC20C5F8CC30D5F8D0302046C5F8D07004920593FDF73BFD4E
:2028200007B0F0BD1F46E0E70023F0B587B002AC02930593C4E901338B6805460E460BB3FD
:20284000022220469847D6E9023794E80300CDE9000105F1D40292E8030084E80300DDE963
:20286000000182E80300D5F8DC20C5F8DC30D5F8E0302046C5F8E07004920593FDF70BFDDE
:2028800007B0F0BD1F46E0E738B5838A05468B420C4609D2202938BF20240069214605F020
:2028A00063FD10B12861AC8238BDFEE773B5846D0546D4F8CC30866EE3B1E28A238B9A42BC
:2028C00018D331462046FFF7DFFF3246206905F1740105F04BFE0023E382D4F8CC302683B9
:2028E00001960BB906F0E8F9D4F8D03001A904F1C400984702B070BDB1F5806F70B50546B4
:202900000C4610D8038C99420AD920290E4638BF2026C069314605F027FD18B1E8612E84D9
:20292000204670BDFEE70024FAE713B590F8243004468DF807107BB1418C0131FFF7DCFF94
:2029400040B10120638C9DF80710E269D154638C0133638402B010BD01220DF10701283050
:2029600000F0A8FAB0FA80F04009F3E770B590F8243004460E46154693B1418C1144FFF732
:20298000BBFF10B90025284670BD638CE0692A461844314605F0EAFD638C2B446384F2E77F
:2029A00092B2283000F086FA0028EBD1EBE70346006918B100219A8A05F088BD704703465B
:2029C000C06918B100211A8C05F080BD704738B50446D1B94FF42A03A36594F8BE30012B76
:2029E00016D1638CE269A17E04F1280000F0E2FA042828BF0420C5B22046FFF7E0FF0023A2
:202A0000638484F82430284638BD4FF02A43E3E70425F8E72DE9F04790F8BEA00446BAF1F6
:202A2000010F0F46154698469DF820609DF8249039D111467F00FFF727FFFFB27EB100239B
:202A4000032E28BF032684F824A0A7766384013EF6B2FF2E1BD100212046FFF7B8FFB9F113
:202A6000000F1DD14FF42A03A36539462B46226904F1280000F038FA002398422E461CBFDB
:202A80001D462E462846E3822683BDE8F0872368F10028FA01F120461B68C9B29847D6E737
:202AA0004FF02A43E0E70020EFE707B5019300230093FFF7AFFF03B05DF804FB0123FFF7E2
:202AC000F4BF0121FFF783BF38B500250446C5820583FFF76CFF20466584FFF770FF38BDB4
:202AE000F8B50446D0F8840005F0C2F9002105F085FAD4F88420C2F30313042B48D8284D4F
:202B0000284E55F8233002F00F029B6856F82220DB4303EA12239BB2002B3FD0D4F88800EE
:202B200005F0A6F9012105F069FA1F4BD4F888001B681E4CC0F30311B3FBF4F30A24042925
:202B400004FB03F300F00F0225D8142756F82220174CC2F30F2255F821C0CCF81420D4F87C
:202B600004E06668A6EB0E06B342FADCCCF81020D4F804C06668A6EB0C06B342FADC013F33
:202B8000E9D105F075F93946BDE8F84005F036BA00239B68FFDE00235B61FBE7F8BD00BF9F
:202BA0000C000020809700082800002040420F00001000E02DE9F04100260446C682068379
:202BC0001F460D469046FFF7F2FE20466684A676FFF7F5FED4F8DC30C4F8804033B104F1FF
:202BE000D401032208469847C4E93766002384F824306B0084F825306B1E5D425D41204609
:202C000084F8BE5084F8BF8084F8C07004F12805FFF766FF284694F82520094900F02CF8A1
:202C200094F8BE304BB92846064900F01BFA2846BDE8F041044900F00EBABDE8F08100BF36
:202C4000A086010051260008AD2800080A4600230121FFF7AFBFC9B2FFF7ACBF16221721AC
:202C60000148FFF701BD00BFA80400200148FFF775BD00BFA8040020F7B50D46174604462A
:202C8000002800F09F805049C06D04F08DF84F490646206E04F088F80146002E00F0928061
:202CA000002800F08F80304604F0A5F82060002800F08880464B261D984260D103F5DE335E
:202CC000DA6942F40012DA61DA6902F400120092009A1A6942F400121A611A6922F40012C6
:202CE0001A6142F21F03A4F864303A4B1E603749206E04F041F83449E06D04F03DF8364B21
:202D000021689D4258D9354B9D4203D9344B9D4288BF00234FF480420025C4E901134FF4E9
:202D20008043C4E9053594F8973002215B1B18BF01239B01236294F89830C4E903275B1B40
:202D400018BF0123DB0163622A4694F96400E56184F8415000F09EFA94F9640000F0CAFAF6
:202D60002A46022194F9650000F094FA94F9650000F0C0FA304600F0AFFCF8B1FEE7194BB1
:202D80009842B4D103F5DC33DA6942F48002DA61DA6902F480020192019A1A6942F4800273
:202DA0001A611A6922F480021A6142F22123A4F86430084B5E609AE70022ADE70223A066E7
:202DC00084F8953003B0F0BD449B0008149B0008005400408C050020A0860100801A0600A8
:202DE00040420F000058004010B5044690F9640000F08EFA94F9650000F08AFA201D00F0A3
:202E000014FD0321206E03F0F7FE0321E06D03F0F3FE2368104A93420DD1104B1A6942F406
:202E200000121A611A6922F400121A61DA6922F40012DA6110BD0A4A9342FBD1074B1A69A2
:202E400042F480021A611A6922F480021A61DA6922F48002EDE700BF005400400010024055
:202E600000580040104B10B59942044606D90F4B994203D90E4B994288BF002360680268B5
:202E800022F001020260A360074B201D994294BF002101218903E16000F01EFC626813689C
:202EA00043F00103136010BDA0860100801A060040420F00202A30B514D800239CB2A242D3
:202EC00007D890F894301344DBB280F89430002030BD90F89440CD5C1C44044484F874502D
:202EE0000133EBE70120F3E72DE9F34705460F469046994600F0B6F900240646D5F830A080
:202F000004354B46424639462846CDF800A000F0B9FD022806D100F0A5F9841B642CF0D9E0
:202F200006201FE008BB00F09DF90646284601F01FFD202809D0632C07D800F093F9841BB2
:202F4000284601F018FD0028F0D0284601F013FD632C0CD882060AD443070AD4003818BF96
:202F60000120800002B0BDE8F0870420FAE70520F8E70320F6E710B564230446043000F01F
:202F80006DFC022810D0032806D090B194F84130202B18BF042004E094F84130202B18BF36
:202FA000052008BF022004E094F84130202B18BF062010BD2DE9F34704460E4691461F46E3
:202FC00000F050F980463FB901223146204602B0BDE8F047FFF7CFBF0025D4F830A00434EF
:202FE0003B464A4631462046CDF800A000F0E2FC022807D100F036F9A0EB0805642DEFD99E
:2030000006201FE008BB00F02DF90646204601F0AFFC202809D0632D07D800F023F9851B28
:20302000204601F0A8FC0028F0D0204601F0A3FC632D0CD882060AD443070AD4003818BFA6
:203040000120800002B0BDE8F0870420FAE70520F8E70320F6E720B119B1C166043000F012
:203060000DBE704720B119B10167043000F006BE704770B590F891300446012B0D46A0F164
:20308000040609D1436E3BB1836E30469847022384F89130002363668DB9E36E84F8915027
:2030A0001BB1304684F890509847204694F8902004F170012023BDE8704000F069BD0023BA
:2030C0000122636684F89120616E2046743131440423BDE8704000F096BD10B590F89130BB
:2030E0000446012B04D1436E13B1836E04389847022384F89130002320466366BDE810405B
:2031000000F0BCBD436E1F2BDEBF436E0133436690F89130012BDAB205D1416E04237031D2
:20312000014400F070BD7047002380F89030704790F892300BB900F0A1BD7047014B186885
:2031400000F01CBF8C050020014B186801F070BB8C050020014B586800F010BF8C050020DE
:20316000014B586801F064BB8C0500200379012B07D10A2919D840F2C740C84000F00100AC
:203180007047022B0BD1022903D8081E18BF01207047063903298CBF002001207047042BB7
:2031A00003D1142901D80248E7E70020704700BF1FF81900012303FA01F183680B43836018
:2031C0007047012303FA01F1836823EA0103836070478068C84000F0010070477047000040
:2031E00038B50E4B05461A784FF47A73B3FBF2F30B4A1068B0FBF3F000F09CF8044658B9AF
:203200000F2D09D8024629464FF0FF3000F042F82046044B1D6038BD0120FCE705000020F2
:203220002800002008000020074A08B51368032043F01003136000F01BF80020FFF7D0FFD1
:20324000FFF7CCFF002008BD00200240034A044B11681B780B441360704700BF94050020CD
:2032600005000020014B1868704700BF9405002007490302CA6803F4E06322F4E0621204FF
:20328000120C134343F0BF6343F40033CB60704700ED00E0154B30B5DC68C4F30224C4F131
:2032A0000703251D042B28BF0423062D4FF0FF3594BF0024033C05FA03F321EA0303A5403E
:2032C00022EA0502A340002843EA0203ACBF00F16040074A4FEA0313DBB2ABBF00F5614075
:2032E00000F00F0080F80033135430BD00ED00E014ED00E0002807DB01234109034A00F06D
:203300001F00834042F82130704700BF00E100E000280CDB01220649430900F01F0082406B
:20332000203341F82320BFF34F8FBFF36F8F704700E100E00138B0F1807F0BD24FF0E0230E
:20334000F021054A586182F823100020072298611A6170470120704700ED00E0002808DB83
:2033600001224309034900F01F008240603341F82320704700E100E0704708B5FFF7FCFFD5
:2033800008BD704710B5044650B1437903F0FF0213B90271FFF7F5FF01230020637110BDE3
:2033A0000120FCE790F821200346022A06D0042282630120002283F8202070470268C06BA0
:2033C000116821F00E011160116821F00101116001211A6C01FA02F24260002083F82110E1
:2033E000E8E7000008B590F82130022B03D004238363012008BD03681A6822F00E021A60EC
:203400001A6822F001021A60174A93421FD0143293421ED0143293421DD0143293421DD05D
:20342000143293421DD01432934214BF4FF080734FF480130D4A5360012380F82130002374
:2034400080F82030436B03B198470020D2E70123F0E71023EEE74FF48073EBE74FF4805369
:20346000E8E74FF48033E5E7080002400000024090F82100704700002DE9F74F00244FF010
:203480000F0E2646DFF884C1614B00F104080A6832FA06F502D103B0BDE8F08F012505FA76
:2034A00006F702EA070537EA020276D14A68032A07D8013A022A00F28380DFE802F09196B1
:2034C0009C00122A00F0948069D8112A00F08A80FF2D94BF8146C1464FEA8602D9F800704B
:2034E00088BF203A0EFA02FA27EA0A0704FA02F21743C9F80070D1F8049019F0805F4CD027
:20350000DCF8182026F0030742F00102CCF81820DCF8182007F1804702F00102019207F5FF
:20352000803706F0030A019A4FEA8A0ABA680EFA0AFB22EA0B0B374A904260D002F58062BC
:2035400090425ED002F5806290425CD002F58062904214BF0422032202FA0AF242EA0B029A
:20356000BA609A6819F4801F14BF2A43AA439A60DA6819F4001F14BF2A43AA43DA605A68C5
:2035800019F4003F14BF2A43AA435A601A6819F4803F14BF2A43AA431A60013677E7DFF897
:2035A00078904A450CD014D8A9F580194A4507D009F570294A4503D0A9F580194A4587D1F8
:2035C0008A68D2B1012A4FF008040CBF076147617EE7DFF848904A45F2D009F58039EDE735
:2035E000CC6875E7CC68043472E7CC6808346FE7CC680C346CE700246AE7042468E70022DB
:20360000AAE70122A8E70222A6E700BF0010024000040140000801400000221000003110A4
:20362000044A08B55169014202D0506103F0ECF808BD00BF000401402DE9F84606460F466A
:2036400091461D464FEA114A3368BAF1010F39D15C6927EA0404A4B2B4FA84F46409A1458F
:2036600001D0002024E06A1CEFD0FFF7FBFD089BC01AA84201D8002DE6D1BAF1010F3368A8
:2036800018D15B6927EA03039BB2B3FA83F35B099945D9D1002320220120336386F83D2013
:2036A00086F83E30326C86F83C3042F020023264BDE8F8869B69DB43C3F3400383F00103F7
:2036C000DBB2E5E79C69E443C4F3400484F00104E4B2C4E77047000070B5044608B90120A8
:2036E00070BD90F83D3003F0FF021BB980F83C20FFF7F0FF242384F83D3023681A6822F0D8
:2037000001021A601A6842F400421A601A6822F400421A6001F090FB3F4B65689D4294BF5F
:203720003E4B3F4B98428CBF00230123002BD6D1394E3C4BB542B0FBF3F388BF4FF496760C
:203740002268516821F03F0141EA030182BF73434FF47A76B3FBF6F35160116A013321F074
:203760003F010B431362D169431E2B4821F44F41854221F0FF0132D86D00B3FBF5F340F678
:20378000FC700133034242D0C3F30B031943D1611168D4E9073021F0C00103430B4313609A
:2037A0009168D4E9030321F40341034321F0FF010B439360D168D4E9053021F0FF010343DA
:2037C0000B43D3601368002043F0010313602023206484F83D30206384F83E0080E7A068C7
:2037E00050B905EB4505B3FBF5F30133C3F30B037BB143F40043C9E719206843B3FBF0F32D
:203800000133C3F30B0323B143F44043BEE70423BCE70123BAE700BFA08601007F841E00E7
:20382000FF083D0040420F00704710B5044698B12423026880F83D30136823F00103136009
:20384000FFF7F2FF0020206484F83C0084F83D00206384F83E0010BD0120FCE72DE9FF4702
:2038600004461F4689469246FFF7FCFC94F83D300546202B03D0022004B0BDE8F087009020
:203880001923012220464949FFF7D6FE0028F2D194F83C30012BEED0012384F83C302368A3
:2038A00000261A6809F0FE09D2075EBF1A6842F001021A601A6822F400621A60242384F802
:2038C0003D303B4B2664E36222684FF001111368204643F4807313603B4600220095FFF79F
:2038E000ABFE236838B11B680320DB0544BF4FF400732364C0E7C3F81090FFF7B3FC4FF0FF
:20390000A0080546226853695269C3F34003C2F3802294F83D10A02901D013431DD04FF06E
:203920002008206884F83D80436913F0020F036843F40073036025D00023039343690122E9
:203940000393836919490393039B204619230095FFF772FE88B101208EE7FFF783FC401B13
:20396000B84200D80FB984F83D80226853695269C3F34003C2F38022CBE784F83D8084F8BC
:203980003C0079E76FF48063012243610749192320460095FFF750FE0028DCD1013656450C
:2039A00092D384F83D8084F83C00D4E7020010000000FFFFF7B5002504460095019594F814
:2039C0003D500898202D02D0022003B0F0BD25682E68B60503D4082801D001281BD146F216
:2039E000A817274E3668B6FBF7F619277E430196019E013E0196019E56B92023266384F854
:203A00003D3084F83E60236C43F020032364DBE7AE69B707ECD494F83C60012ED4D02E68CB
:203A2000F6075EBF2E6846F001062E602E6826F400662E60212684F83D60102684F83E60B7
:203A4000002626646385638DE06261642385236B62620093009B112B05D1B0F52A0F02D0ED
:203A6000B0F12A4F03D12B6843F480732B60002084F83C006B6843F4E0636B60A5E700BFD5
:203A800028000020F7B5002504460095019594F83D500898202D02D0022003B0F0BD2568B1
:203AA0002E68B60503D4082801D001281BD146F2A817364E3668B6FBF7F619277E43019679
:203AC000019E013E0196019E56B92023266384F83D3084F83E60236C43F020032364DBE7C6
:203AE000AE69B707ECD494F83C60012ED4D0012684F83C602E68F6075EBF2E6846F0010674
:203B00002E602E6826F400662E60222684F83D60102684F83E60002626646385638DE062F8
:203B200061642385236B62620093638D9BB2022B24D1202801D0102820D1009B122B2B6827
:203B40001DD14FF4407223F480632B602B6843F400632B60009B122B05D1B0F52A0F02D0E7
:203B6000B0F12A4F03D12B6843F480732B60002084F83C006B6813436B608EE72B6843F404
:203B800080634FF4E0622B60E4E700BF2800002037B5044690F83D0000F02800282830D1FC
:203BA00000292CD0002A2AD094F83C00012828D025682868C0075EBF286840F00100286089
:203BC000286820F400602860292084F83D00202084F83E00002020646285628DE36201900D
:203BE0006B6961620193AB6984F83C000193019B6B68228543F4E0636B6003B030BD01201E
:203C0000FBE70220F9E737B5044690F83D0000F02800282830D100292CD0002A2AD094F887
:203C20003C00012828D025682868C0075EBF286840F001002860286820F4006028602A2007
:203C400084F83D00202084F83E00002020646285628DE36201906B6961620193AB6984F8A6
:203C60003C000193019B6B68228543F4E0636B6003B030BD0120FBE70220F9E790F83D307F
:203C8000202B14D1282380F83D30036800201A68D2075EBF1A6842F001021A601A6842F4D8
:203CA00080621A605A6842F440725A6070470220704770477047704790F83D2008B5036D7D
:203CC000D2B283B9C36C0268012B836C05D1DBB21361036D0233036508BDC3F30723136173
:203CE000036D0133F7E7036D012B03D1836C0268DBB2F4E7036D022B2FD1222A05D10268E8
:203D0000136843F480731360EAE7438D9BB263B1212A0AD1436A026813F8011B116143620E
:203D2000438D013B9BB24385D6E7438D9BB2002BD2D1212AD0D10268516821F4E0615160A4
:203D4000116841F4007111602022036380F83D2080F83E30FFF7AFFFBEE703685A691206E1
:203D600044BF00221A61B7E770477047002337B546F2A81101932C4B406A1B6890F83D207A
:203D8000B3FBF1F323214B4301930368D2B2019941BB016C41F020010164446B0CB10021F5
:203DA000A162816B09B100258D621D6825F480651D600025458504B1656301B14D631968F7
:203DC00021F00101196090F83D10602911D1202380F83D30002380F83E300364FFF7C5FFC5
:203DE00003B030BD01990139019119688905CED4D3E702F02802282A0ED1196841F0010151
:203E00001960196841F4806119600023036380F83D20FFF78DF9E3E7202380F83D3000232A
:203E200080F83E30F5E700BF2800002010B590F83D2090F83E300446102BD9B2D2B203681A
:203E400001D0402913D1222A11D1196821F400611960596811F4006106D1602A1EBF2022FF
:203E600084F83D2084F83E100022226307E002F028012829EDD10022226384F83D105A68B5
:203E800012F400624FD05A68606B22F400625A6090F82130012B374B2BD04363FFF7A2FA22
:203EA00050B12268606B136823F001031360202384F83D30436B9847236C19071FBF2268D7
:203EC000536823F4E063536094F83D30226CDBB252070DD5282B0BD1274B2022E362002380
:203EE0002046236384F83D2084F83E30FFF7F5F810BDA06B4363FFF775FA0028DCD02368EE
:203F00005A69510605D51A69636A1A70636A013363622268A06B136823F001031360202330
:203F200084F83D30C6E794F83D10602915D1202184F83D1022645A69520605D51A69636ACE
:203F40001A70636A0133636222682046136823F001031360FFF709FFAEE75A69500605D596
:203F60001A69636A1A70636A013363622046FFF7DFF8A1E76D3D00080000FFFFF0B5044647
:203F800003688FB05A68C66A90F83E0094F83D101028C5B2C9B202D0402D40F0E5829F69DE
:203FA000586910F0010F07D1B6F52A0F02D0B6F12A4F51D10FB0F0BD96054DD5E26AB2F544
:203FC0002A0F0CD10122E26294F83E20402A11D1226D52B9626C02F0FE021A61EAE7E26A3C
:203FE000B2F12A4FF0D10822EDE7626C42F00102D2B2F2E72269B2F5804F1AD194F83D20B1
:20400000212A626C11D102F0FE021A61626B0AB1926A2AB9A26B002ACCD0926A002AC9D03F
:204020005A6842F400625A60C4E742F00102D2B2EBE7226D32B9626CD21102F0060242F0DF
:20404000F002CAE7226D012AB4D1626CD21102F0060242F0F102C0E7060703D5960501D5B1
:20406000626CE4E7860740F1F080960540F1ED8094F83E10E26A256B94F83D00C9B22228FC
:2040800040F0DB80206D40B9402906D100905A6900929B690093009B8CE7216D89B92069EC
:2040A000B0F5404F0DD101915A6901929A690192019A1A6842F480721A60236D0133236565
:2040C00078E7618D89B251B902915A6902929A690292029A1A6842F400721A6019E0618DA6
:2040E00089B2012949D112F5803F1BD11A6822F480621A605A6812F400620CD01A6822F4FD
:2041000080621A60002203925A6903929B690393039B0023D3E704925A6904929A69049297
:20412000049AD7E7082A1CD0202A1AD0122D0DD1012A16D11A6822F480621A6000220592F5
:204140005A6905929B690593059BE2E7102AF1D8864941FA02F2D707ECD41A6842F48062C7
:20416000EBE71A6822F480621A60002206925A6906929A690692069AACE7618D89B2022942
:2041800038D1102A03D87A49D140CE0718D4196841F40061196000210791596907919969C7
:2041A00007910799196821F48061196059680D05AFD5202A1BD8072A0ED8012AA9D111E096
:2041C000196841F4806119600021089159690891996908910899E9E7A2F10801654ACA4059
:2041E000D00796D55A6842F480525A6091E712F5803FE3E7196841F4806119605968090512
:2042000010D5202A16D8072A06D8012A0AD15A6842F480525A6005E0A2F10801554ACA40BE
:20422000D207F4D4002209925A6909929B690993099B6EE712F5803FE8E700220A925A6913
:204240000A929B690A930A9BB4E67F0740F194805E6836053FF5AEAE070600F004063ED56C
:2042600050053CD5002E3DD194F83D20258D94F83E10D2B2E06AC9B2C5B9212A18D10828FC
:2042800058D0202856D010F5803F53D05A6822F4E0625A6011232363002384F83E302023C3
:2042A000204684F83D30FFF704FD83E6212A05D040297FF47FAE222A7FF47CAE628D92B20A
:2042C0001AB95A6822F48062ADE694F83E20402A16D120460FB0BDE8F040FFF7EDBC002EBC
:2042E0003FF468AE97057FF565AE212939D1E16A94F83D20212A7FF45DAE628D92B24AB1D3
:20430000626A12F8011B19616262638D013B9BB263854FE608290DD020290BD011F5803FE0
:2043200008D0596821F4E06159601123236384F83E20B4E75A68204622F4E0625A601A68EA
:2043400042F400721A6000232022236384F83D2094F83E2084F83E30402AA4D1FFF7ABFC27
:2043600028E6402D7FF426AEB3E700BFEBFFFEFF140001000101000159680E053FF51AAE53
:20438000450600F0040140F18680500540F18380002940F0838094F83D20222A7FF40AAE61
:2043A000E06A628D92B2032A14D91A69636A1A70636A01336362638D013B9BB26385638D75
:2043C0009BB2032B7FF4F6AD2268536823F480635360EFE5E56A022D3FF473AF012A3FF653
:2043E00070AF0B9146F2A811794A1268B2FBF1F202EB82020B920B9A013A0B920B99D1B98B
:20440000226C204642F0200222645A6822F4E0625A601A69636A1A70636A01336362638D6A
:20442000013B9BB26385202384F83D3084F83E10FEF77EFEBEE51A6812F40072DBD11968DA
:2044400021F480611960596821F4E06159601969636A1970636A01336362638D013B9BB206
:204460006385202384F83D3094F83E3084F83E20402B04D122632046FFF776FC9AE5082812
:2044800001D0202801D1002300E0122320462363FFF710FC8EE500293FF48CAD92057FF5F8
:2044A00089ADE26A608D616A80B2042809D15A6822F480625A601B690B70636A0133636251
:2044C00023E7608D80B203280CD15868042A20F480605860EFD0022AEDD01A6822F48062EF
:2044E0001A60E8E7608D80B20228E4D1042A33D007D8012A07D0022A2ED0186840F4007015
:2045000004E0102AF9D1186820F4806018601B690B70616A4B1C6362638D013B9BB2638570
:2045200023681B694B70636A216801336362638D013B9BB263854B6823F440734B60202396
:2045400084F83D3094F83E30402B4FF0000384F83E3005D123638EE7186840F48060D5E7C0
:20456000082A90D0202A8DE7206C20B30025586987072FD596052DD5226C02B19D6994F8A4
:204580003D2002F02802282A18D15A682F0622F480625A604FF0000354BFE268A269C5F35C
:2045A000800181F001012046C9B284F83C3092B2FEF75FFDFEE49D695869D9E700220C9280
:2045C00059690C919B6984F83C200C930C9BF1E428000020C60640F1B180950540F1AE8016
:2045E00094F83D505A68EDB222F4E0625A6000220D925A690D921A6842F001021A600D9A34
:204600001A6822F480621A605A68100520D505F0F702222A4AD1A06B0268526892B262852B
:20462000628D92B21AB1226C42F0040222645A6822F400625A60FEF71BFF012808D0A06B21
:20464000794B4363FEF7CEFE10B1A06B436B9847638D9BB213B323685A69510709D51A69CC
:20466000636A1A70636A01336362638D013B9BB2638523685A69520609D51A69636A1A705E
:20468000636A01336362638D013B9BB26385638D9BB21BB1236C43F004032364236C13B345
:2046A00020460FB0BDE8F040FFF7C0BB606B0268526892B26285628D92B21AB1226C42F0B7
:2046C000040222645A6822F400625A60FEF7D0FE0128BDD0606B544B4363FEF783FE002833
:2046E000B6D0606BB2E72A2D06D123632823204684F83D30FEF706FD94F83D30282B0CD161
:204700004A4B2022E36200232046236384F83D2084F83E30FEF7E1FC4CE4236B222B02D0FC
:20472000222D7FF447AC00232022236384F83D2084F83E302046FEF7E5FC3BE401F0F701D2
:20474000212900F0040535D1070627D5560525D53DBB94F83D00628DC0B292B2002A3FF4EF
:2047600029AC626A12F8015B1D616262628D013A92B26285628D92B2002A7FF41BAC2928B3
:204780007FF418AC5A68204622F480625A602823216384F83D30FEF7C7FC0BE4002D3FF449
:2047A00009AC95057FF506AC628D92B2002A3FF401ACA5E5400627D5510525D53DBB94F8A7
:2047C0003D20618DD2B289B200293FF4F3AB1969636A1970636A01336362638D013B9BB2BE
:2047E0006385638D9BB2002B7FF4E4AB2A2A7FF4E1AB2268536823F4806353602223236357
:20480000282384F83D3095E7002D3FF4D3AB92057FF5D0AB628D92B2002A3FF4CBAB1A69FB
:20482000636A1A7049E600BF6D3D00080000FFFFF8B5036804465F695E6890F83E2017F4A2
:204840008075D2B20AD016F4807507D06FF4807101255961196841F400411960B80506D5F3
:20486000F10542BF6FF4007145F002055961780536D5F10534D5608D94F83D10202AD4F814
:2048800030C080B2C9B25FD100285DD101F0F700212804D0282957D1BCF1210F54D194F8E9
:2048A0003D20E16AD2B2082901D020292AD1282A28D12E4A2046E2625A6822F4E0625A6045
:2048C0006FF480625A611A6822F480621A6000232022236384F83D2084F83E30FEF7FDFB49
:2048E0003A053FD5F3053DD56FF40062236845F008055A61236C20461D432564BDE8F84053
:20490000FFF794BA212A1BD11849E16222630021202284F83D2084F83E105A6822F4E062D3
:204920005A606FF480625A611A6822F480621A605A69100648BF19612046FEF7F5FBCFE76E
:204940006FF480625A61CBE76FF48061102A596145F0040501D0402AC2D11A6842F4007237
:204960001A60BDE7002DC5D1F8BD00BF0000FFFF90F83D007047006C704700002DE9F341FB
:20498000054638B30368DB0710D42B689F075ED42B68190700F195802B685A0700F1C18066
:2049A000EB69002B40F02C81002029E0904C636803F00C03042B07D0636803F00C03082BC3
:2049C0000AD16368DE0307D523689C03DDD56B68002BDAD1012013E06B68B3F5803F12D1BE
:2049E000236843F480332360FEF73CFC064623689803CAD4FEF736FC801B6428F7D9032041
:204A000002B0BDE8F0819BB9236823F480332360236823F480232360FEF724FC06462368EE
:204A20009903B2D5FEF71EFC801B6428F7D9E6E7B3F5A02F236803D143F480232360CFE797
:204A400023F480332360236823F48023CBE7684C636813F00C0F07D0636803F00C03082B9E
:204A600010D16368DA030DD423689B0702D52B69012BAFD123686A6923F0F80343EAC2032A
:204A8000236085E72A695B4B6AB101221A60FEF7E9FB064623689F07ECD4FEF7E3FB801BB2
:204AA0000228F7D9ABE71A60FEF7DCFB0646236898077FF56DAFFEF7D5FB801B0228F6D9C5
:204AC0009DE7AA694A4E4B4BE2B10122C3F88024FEF7C8FB0446736A9B070DD54FF4FA520A
:204AE000454B1B68B3FBF2F3019300BF019B5A1E0192002BF9D14FE7FEF7B4FB001B022802
:204B0000E9D97CE7C3F88024FEF7ACFB0446736A9F077FF541AFFEF7A5FB001B0228F6D99B
:204B20006DE7334CE369D80024D40127E36943F08053E361E36903F080530093009B2F4E0B
:204B40003368D90518D5EB68012B26D1236A43F001032362FEF786FB41F288380646236AEE
:204B60009B073FD5002F3FF41BAFE36923F08053E36115E70027E2E7336843F48073336099
:204B8000FEF770FB80463368DA05DCD4FEF76AFBA0EB08006428F6D931E7ABB9236A41F241
:204BA000883823F001032362236A23F004032362FEF758FB0646236A9807D3D5FEF752FBC3
:204BC000801B4045F7D91AE7052B236A03D143F004032362BAE723F001032362236A23F0B7
:204BE0000403B6E7FEF73EFB801B4045B7D906E70010024000004242280000200070004078
:204C00002A4C626802F00C02082A3ED00022022B274B1A662CD1FEF725FB06462368990150
:204C200020D42B6AB3F5803F05D16268A96822F400320A436260696A62680B4322F47412F5
:204C40001343012263601A4B1A66FEF70BFB054623689A013FF5A8AEFEF704FB401B0228C4
:204C6000F6D9CCE6FEF7FEFA801B0228D6D9C6E6FEF7F8FA054623689B017FF595AEFEF7A1
:204C8000F1FA401B0228F6D9B9E6012B3FF4A2AE60682B6A00F480329A427FF49BAE6B6A17
:204CA00000F47010C01A18BF0120A9E600100240000042420D4A536803F00C01082912D123
:204CC0000B48C3F38341DB03405C09D55368094AC3F340435043084AD35CB0FBF3F070470F
:204CE000064B584370470348704700BF001002406297000800127A006097000800093D002C
:204D00002DE9F0410D46044610B90120BDE8F081444A136803F007038B4228D321688E07C3
:204D200030D4CA0743D43F4A136803F00703AB4265D822683C4D12F0040F6CD1130706D502
:204D40006B68226923F4605343EAC2036B60FFF7B1FF6B68354AC3F30313D35CD840344BE4
:204D60001860344B1868FEF73BFA0020CEE7136823F007030B431360136803F007038B421F
:204D8000C3D1CBE7284B11F0040F1EBF5A6842F4E0625A60080742BF5A6842F460525A6001
:204DA0005A68A06822F0F00202435A60B9E762681D4E012A33681AD113F4003FA5D073680A
:204DC00041F2883823F0030313437360FEF74AFA07467368626803F00C03B3EB820FA2D0D0
:204DE000FEF740FAC01B4045F3D903208EE7022A02D113F0007FE1E713F0020FDEE7136823
:204E000023F007032B431360136803F00703AB427FF47BAF8DE76B68E16823F4E0630B435A
:204E20006B608BE70020024000100240C89700082800002008000020044B054A5B68C3F393
:204E40000223D35C034A1068D840704700100240C097000828000020044B054A5B68C3F35A
:204E6000C223D35C034A1068D840704700100240C0970008280000200F2303600B4B5A68E4
:204E800002F0030242605A6802F0F00282605A6802F4E062C2605B68DB0803F4E063036191
:204EA000034B1B6803F007030B6070470010024000200240036A026A70B522F001020262D7
:204EC000446882690D6822F073022A438D6823F002032B430A4DA8420BD1CD6823F00803E7
:204EE0002B4324F44074D1E90556354323F004032C43446082614A684263036270BD00BF33
:204F0000002C0140036A026A70B522F4807202624468C2690D6822F073022A438D6823F46E
:204F2000007343EA05230B4DA8420DD1CD6823F4006343EA052324F44054D1E9055635434C
:204F400023F4806344EA05144460C2614A68C263036270BD002C0140036A026A30B522F49F
:204F6000805202624468C2690D6822F4E64242EA05228D6823F4005343EA0533064DA8421D
:204F800002BF4D6924F4804444EA85144460C2614A680264036230BD002C014090F83D3064
:204FA000012B1CD102230F4A80F83D30036893420AD0B3F1804F07D0A2F59432934203D00C
:204FC00002F58062934204D19A6802F00702062A03D01A6842F001021A6000207047012025
:204FE000704700BF002C014090F83C200346012A4FF0020009D01A6883F83D005161002050
:20500000012283F83C0083F83D20704770477047036870B5DD681E690446B1070DD5AA07C8
:205020000BD56FF002021A61012202779B699B0769D001F02CFA00232377710710D56A0795
:205040000ED56FF00402236820461A61022222779B6913F4407F5CD001F019FA0023237728
:2050600033070FD528070DD56FF00802236820461A6104222277DB69990750D001F007FA77
:2050800000232377F20610D5EB060ED56FF01002236820461A6108222277DB6913F4407FF8
:2050A00043D001F0F4F900232377F00708D5E90706D56FF00102236820461A6101F0C4F927
:2050C000320608D52B0606D56FF08002236820461A6100F004FB700608D5690606D56FF077
:2050E0004002236820461A61FFF791FFB20622D5AB0620D56FF0200223682046BDE8704060
:205100001A6100F0EBBA01F0C0F92046FFF77EFF91E701F0BAF92046FFF778FF9EE701F097
:20512000B4F92046FFF772FFAAE701F0AEF92046FFF76CFFB7E770BD174A036890420AD0C2
:20514000B0F1804F07D0A2F59432904203D002F58062904207D14A6823F070031343CA68C3
:2051600023F4407313434A6923F08003134303608B68C3620B688362074B984204BF0B693A
:205180000363012343610369DB0742BF036923F001030361704700BF002C014010B50446B9
:2051A00030B390F83D3003F0FF021BB980F83C2001F006FF0223206884F83D30211DFFF7BB
:2051C000BBFF0123002084F8463084F83E3084F83F3084F8403084F8413084F8423084F8C7
:2051E000433084F8443084F8453084F83D3010BD0120FCE7036A026A70B522F0100202621B
:20520000446882690D6822F4E64242EA05228D6823F0200343EA05130B4DA8420DD1CD682C
:2052200023F0800343EA051324F44064D1E90556354323F0400344EA8504446082614A6804
:205240008263036270BD00BF002C014010B590F83C300446012B1DD0082A17D007D862B184
:20526000042A0FD00120002384F83C3010BD0C2AF8D10068FFF770FE02E00068FFF71AFE05
:205280000020F0E70068FFF7B5FFF9E70068FFF739FEF5E70220E9E738B590F83C30044697
:2052A000012B4FD00120082A84F83C003AD006D8BAB1042A26D0002384F83C3038BD0C2AEB
:2052C000F9D12068FFF748FEC3690A6943F40063C361C36923F48063C361C36943EA02231B
:2052E0002EE02068FFF7E6FD83690A6943F008038361836923F004038361836913438361AE
:205300000020D8E72068FFF775FF83690A6943F400638361836923F480638361836943EAFC
:205320000223ECE72068FFF7EDFDC3690A6943F00803C361C36923F00403C361C369134320
:20534000C361DDE70220B9E770B5056A046A114E24F001040462B042846916D0B0F1804F8E
:2053600013D0A6F59436B0420FD006F58066B0420BD044F0010263F3071201F00A0125F0AF
:205380000A0319438261016270BD24F003042243F1E700BF002C0140F8B590F83C300546C1
:2053A000012B0C4600F081800120082A85F83C005BD006D842B3042A35D0002385F83C3035
:2053C000F8BD0C2AF9D1D1E900272B68CE68186A196A120321F480511962D96920F400504D
:2053E00021F4407141EA072102F4005266F30F310243D9611A62DA69A16822F44062DA6179
:20540000DA6942EA01224EE02868CB6806C9FFF79BFF8369A26823F00C038361836913436C
:2054200083610020C9E72B68D1E90027186ACE68196A120121F010011962996920F0A000A7
:2054400021F4407141EA072102F0A00266F30F31024399611A629A69A16822F440629A618C
:205460009A6942EA01229A61DBE72B68D1E90021186A1E6AE76826F480761E62DE6912026B
:2054800026F00306314320F4007002F4007267F307110243D9611A62DA69A16822F00C02B4
:2054A000DA61DA690A43DA61BBE7022088E710B50124036A01F01F018C4023EA0403036206
:2054C000036A8A401A43026210BD000008B529B990F83E30012B1DD001202EE0042907D125
:2054E00090F83F30012BF7D1022380F83F3014E0082907D190F84030012BEDD1022380F839
:2055000040300AE090F84130012BE5D1022380F8413002E0022380F83E3000680122FFF7DA
:20552000C6FF0F4B984209D0B0F1804F0BD1836803F00703062B0DD1002008BD436C43F48B
:2055400000434364F3E7074B9842F0D003F580639842ECD0036843F001030360ECE700BF93
:20556000002C014000040040FFF7B0BF08B5034641BB90F83E0093F84220C0B20128D2B241
:205580004DD1012A1DD1022291BB83F83E2083F8422018680122FFF78AFF224B98420AD06B
:2055A000B0F1804F07D0A3F59433984203D003F5806398422ED1836803F00703062B29D1D1
:2055C000002008BD042905D190F83F0093F84320C0B2D3E708290BBF90F8400093F8410073
:2055E00093F8442093F845200CBFC0B2C0B2C5E7042904D183F83F2083F84320C9E70829D6
:205600000BBF83F8402083F8412083F8442083F84520BEE7036843F001030360D0E70120C8
:20562000CFE700BF002C014010B50424036A01F00F018C4023EA04030362036A8A401A4354
:20564000026210BD08B529B990F84230012B1DD001203EE0042907D190F84330012BF7D134
:20566000022380F8433014E0082907D190F84430012BEDD1022380F844300AE090F845303F
:20568000012BE5D1022380F8453002E0022380F8423000680422FFF7C7FF436C43F40043B2
:2056A00043640C4B98420AD0B0F1804F07D0A3F59433984203D003F58063984204D1836870
:2056C00003F00703062B03D0036843F001030360002008BD002C0140FFF7B4BF704770479B
:2056E000026802F10C0353E8003F23F490730C3242E8003102680029F2D102F1140353E876
:20570000003F23F0010302F1140C4CE800310029F3D1036B012B0BD102F10C0353E8003FDC
:2057200023F0100302F10C0C4CE800310029F3D1202380F8423000230363704710B504466A
:205740000368C1681A6922F440520A431A6182680069D9680243606921F4B05121F00C01EC
:2057600002430A43DA605A69A16922F440720A435A610E4A934215D1FFF76EFB192343438C
:20578000626820689200B3FBF2F36422B3FBF2F102FB11331B013233B3FBF2F303EB011324
:2057A000836010BDFFF748FBE8E700BF00380140F7B505460C4617461E462A68136834EAC4
:2057C000030301D1002021E0701CF7D0FDF74AFDC01B86421CD3DEB12B68DA685107ECD533
:2057E000802CEAD0402CE8D01A681207E5D5002401941A68284601925B680193019BFFF7A5
:205800006FFF082301206B6485F8404003B0F0BD0320FBE7704710B5044648B390F84130E3
:2058200003F0FF021BB980F84020FFF7F3FF2423226884F84130D368204623F40053D360E4
:20584000FFF77CFF236800201A6922F490421A615A6922F02A025A61DA6842F40052DA6086
:205860002023606484F8413084F84230606310BD0120FCE710B5044668B390F8413003F09C
:20588000FF021BB980F84020FFF7C4FF2423226884F84130D368204623F40053D360FFF7B0
:2058A0004DFF236800201A6922F490421A615A6922F022025A615A6942F008025A61DA685B
:2058C00042F40052DA602023606484F8413084F84230606310BD0120FCE72DE9F843984661
:2058E00090F841300446202B0E4617463FD100293FD0002A3DD021230025456480F84130EF
:20590000FDF7B0FCA3688146B3F5805FA784E78403D123690BB935461E46E38C9BB253B92D
:2059200043464A4640212046FFF742FF202350B984F841300AE043464A4680212046FFF717
:2059400037FF28B12023032084F84130BDE8F88322684EB935F8023BC3F308035360E18CE9
:20596000013989B2E184D8E716F8013BF6E70220ECE70120EAE790F84130202B10D189B121
:2059800082B1C28482840023212201620168436480F84120CA68184642F08002CA607047B1
:2059A000022070470120704708B50023406AC385C38401F067FD08BD704790F8423007B596
:2059C000222B42D181680268B1F5805F836A3FD1016900293FD15268C2F3080223F8022B2E
:2059E0008362C38D013B9BB2C385002B2DD10268D16821F02001D160D16821F48071D16002
:205A0000516921F001015161202280F842204363026B012A026828D1036302F10C0353E8A7
:205A2000003F23F0100302F10C0C4CE800310029F3D11368DB0605D5019113680193536812
:205A40000193019B818DFFF7B7FF03B05DF804FB39B9016929B95268D2B21A70836A01332E
:205A6000BEE7526802F07F02F7E701F005FDECE7036873B51A6804461607D9685D6908D154
:205A8000960668D58D0666D502B0BDE87040FFF794BF05F0010001F4907505435BD0D607CF
:205AA00005D5CD0542BF636C43F001036364530704D518B1636C43F002036364960704D52C
:205AC00018B1636C43F004036364150707D501F0200303431EBF636C43F008036364636C5B
:205AE000002B32D0920604D58B0602D52046FFF764FF266820467369626C03F0400302F01B
:205B0000080253EA020522D0FFF7EAFD73695E0618D5226802F1140353E8003F23F04003D7
:205B2000143242E800310029F3D1E06B50B1744B4363FDF757FC40B1E06B436B02B0BDE89E
:205B400070401847204601F09DFC02B070BD01F099FC6564F9E7206B012840F09480D50665
:205B600040F19180C80640F18E80002201921A6801925A680192019A5A6952064DD5E16B93
:205B80000A68526892B2002ADFD0A08D9042DCD9E2858A69202A36D003F10C0252E8002FF3
:205BA00022F4807203F10C0040E800210029F3D103F1140252E8002F22F0010203F1140017
:205BC00040E800210029F3D103F1140252E8002F22F0400203F1140040E800210029F3D18A
:205BE000202284F84220216303F10C0252E8002F22F0100203F10C0040E800210029F3D13C
:205C0000E06BFDF7CFFB02236363E38DA18DC91A89B22046FFF7D0FE97E7E28DE18D92B20B
:205C200089B2002991D0A18D891A89B200298CD003F10C0252E8002F22F4907203F10C0586
:205C400045E800200028F3D103F1140252E8002F22F0010203F1140545E800200028F3D13D
:205C6000202284F84220206303F10C0252E8002F22F0100203F10C0545E800200028F3D1B4
:205C800002236363C5E7160628D50D0626D594F84120212A7FF459AFA168226AB1F5805F79
:205CA00017D12169A9B932F8021BC1F3080159602262E28C013A92B2E284002A7FF445AFEB
:205CC000DA6822F08002DA60DA6842F04002DA603BE7511C216212785A60EAE750067FF5D3
:205CE00034AF4A067FF531AFDA68204622F04002DA60202384F8413001F0C1FB25E700BF3F
:205D0000A959000890F84030012B11D02423026880F84130D36823F00C0343F00803D3600C
:205D2000202380F84130002380F84030184670470220704790F84030012B11D02423026888
:205D400080F84130D36823F00C0343F00403D360202380F84130002380F840301846704744
:205D60000220704790F8412090F84200104370470023C285436422238285026980F84230DB
:205D8000816203681AB1DA6842F48072DA605A69002042F001025A61DA6842F02002DA60A3
:205DA000704770B590F84260202E07D141B13AB100240463FFF7DCFF204670BD0220FCE7E6
:205DC0000120FAE7836810B504462BB10322014698470023C4E9023310BD4B1E032B00D95E
:205DE000FEE78900081F70470139435C13F0100004D0022916D80C4A32F81100DB0712D524
:205E000003290FD8DFE801F00205080B40F00100704740F01000704740F48070704740F4AF
:205E200080507047FEE770477A9700080139032900D9FEE7014B585C704700BF7697000877
:205E40000139032900D9FEE7014B585C704700BF729700082DE9F0410E460446FFF7BDFF00
:205E600006F1060805463146204604EB0818FFF7DDFFD8F808302BB1C24323691A61DA68E2
:205E80000243DA60771E04EB47039B880B2B49D8DFE803F051181818060618184A4A4A2AA4
:205EA000E35DDE0604D5294604F11000FFF714FCE35DD80736D5294604F11000BDE8F041F7
:205EC000FFF752BBE35DD90604D5294604F11000FFF7B8FBE35DDA0724D5294604F110001C
:205EE000BDE8F041FFF7F2BA294604F11000FFF73DFB31462046FFF7A3FF0146064620461A
:205F0000FFF772FF25692B6A1843D8F80830286243B131462046FFF789FFC3432B61EB68D6
:205F20001843E860BDE8F081294604F11000BDE8F041FFF71BBB23691B68DB07F2D404F1E6
:205F40001000BDE8F041FFF729B870B5012504462946861C36F8023F23B129462046FFF7D0
:205F600079FF00210135052DF4D1A36E3BB16FF0010223691A61DA6842F00102DA6049B14A
:205F800023691B68DB0705D404F11000BDE87040FFF704B870BD00002DE9F0438DB004462E
:205FA00098460F46FFF719FF4FF6FF731646059305462369C0B95B6B002206930123CDE94A
:205FC00002329DF85030CDE90922079208920B92019204930B2E1DD8DFE806F00F15454801
:205FE0004A5355575B596264042801D19B6BE3E708280CBFDB6B1B6CDEE705922A4605A9CE
:2060000004F1100004E010232A46059305A9E018FFF71CF9013F04EB47039E8006B3B8F1B2
:20602000FF3F1DD0404601F00DF8A84264D140463249083E00F0A0FE032E05D8404601F040
:2060400017FF002101F0DAFF40462C4900F0CEFE10F4801F0CBF01221022E35D1343E355F7
:206060000DB0BDE8F08320230593C7E73023FBE760232A4605A904F110000593FFF70CF954
:20608000C8E77023F5E75023EEE74023ECE7022301932A4601A904F11000FFF77DF9B9E780
:2060A0000A23F5E74046154900F0A0FE10F4801000D0FEE7012304F110092A46019001A93F
:2060C00048460293FFF768F939462046FFF7B8FE431EE25C014642F00102E2540B2204EB48
:2060E00043039A8002232046CDE90133FFF775FE01A902464846D0E7FEE700BFE098000807
:20610000013903299ABF00EB410080880020704701211030FEF768BF0369186800F001005A
:20612000704710B502460C46FFF7F6FF80B9CB68DB070ED5CB68104623F00103CB60FFF76C
:20614000E7FF6FF001032361E36843F00103E36010BD1046BDE81040FFF7DABF0B4B9842D6
:206160000BD0B0F1804F0AD0A3F59433984208D003F58063984206D0FEE700207047012081
:206180007047022070470320704700BF002C0140024670B5044652F8100FFFF7DFFF05462A
:2061A000104600F09FFE0023084A04F1600642F82530E36004F1B005B54204D0103D28462A
:2061C000FAF769F8F8E7204670BD00BF98050020F8B504460846FFF7C1FF236903B1FEE75F
:2061E0001B4D04F10C0245F820200E2204F110063046C4E90C33C4E90E33C4E91033C4E98F
:206200001623216184F82C30A36484F84C3084F84D30E46000F022FE04F1600504F1B00799
:2062200028461035FFF7CEFDBD42F9D100234FF6FF72C4E90033C4E90632C4E90833A36098
:20624000636180233046A362BDE8F840FEF7A6BF9805002010B586B014220446002101A823
:2062600002F034F90023694601A80093FEF704FE206900F0CDFE012802D002280FD0FEE7CD
:20628000049CFEF7D9FDB4F5C06F05D00BD824F48074B4F5806F00D1400006B010BD059C2A
:2062A000FEF7DAFDEFE7B4F5E06FF4E7012A38B505460C460BD0022A16D004B1013C296943
:2062C0002846CC62EC61BDE83840FFF72ABFFFF7C1FF084BB0FBF3F044432A69230C936204
:2062E0000133B4FBF3F4E8E7FFF7B4FFB0FBF4F4F3E700BF40420F00F8B5054614461A46ED
:20630000FFF76BFD2B69822A9E6A074606F1010629D01FD8102A11D852BB4FF6FF72296924
:20632000CB6A934203D1B4F5803F08BF1C4637BB4C632846BDE8F840FFF7F3BE812AECD1F3
:206340002846FFF787FF124BB0FBF3F06043B0FBF6F4E2E7832AE0D1DB6A03FB04436424F7
:20636000B3FBF4F4D9E72846FFF774FF6643EEE7DB6A03FB044301249440013CF0E7042FA8
:2063800001D18C63D5E7082F0CBFCC630C64D0E740420F00034B186810B10430FEF738BEE9
:2063A000704700BF98050020FFF7F4BF034B586810B10430FEF72CBE704700BF98050020EC
:2063C000034B986810B10430FEF722BE704700BF98050020034BD86810B10430FEF718BE24
:2063E000704700BF980500200022C0E90022C0E902227047F8B504460E4600F1600500F167
:20640000B00728461035FFF7EFFFBD42F9D10023204631462361FFF7DBFE2046F8BD82680D
:2064200010B50AB902F048FCC368BDE81040184708B500B9FEE700F00FFD0068836E13B1AB
:206440006030FFF7ECFF08BDFFF7F2BF10B500B9FEE7037F013B072B10D8DFE803F0041452
:206460000F100F0F0F12012400F0F6FC0068063400EB041083680BB1FFF7D1FF10BD0324B5
:20648000F2E70424F0E70224EEE7FFF7DFBFFFF7DDBF01F0ABBE01F0B1BE000086B00428E7
:2064A00041D8DFE800F003101C2834001F4B20489A6942F004029A619B6903F004030193E7
:2064C000019B06B07047194B1A489A6942F008029A619B6903F008030293029BF1E7134B49
:2064E00015489A6942F010029A619B6903F010030393039BE5E70D4B10489A6942F02002EC
:206500009A619B6903F020030493049BD9E7074B0B489A6942F040029A619B6903F040031F
:206520000593059BCDE70020CBE700BF0010024000080140000C0140001001400014014050
:20654000001801402DE9F3478A46244999469046064600F029FCFFF701FE214F054657F840
:20656000203073B9B020FFF794FF1C490446304600F01AFC01462046FFF73CFF57F8253099
:206580001C60164930461C6800F030FCC0F3C43529462046FFF7B4FD0428074607D000236F
:2065A00004220093294633462046FFF7F5FC022251462046FFF77AFE4B4642462946204670
:2065C000FFF79AFE042F05D0204602B0BDE8F047FFF7BBBC02B0BDE8F08700BFE0980008B7
:2065E00098050020F8B51349064600F0DDFBFFF7B5FD114F054657F8203073B9B020FFF7DD
:2066000048FF0C490446304600F0CEFB01462046FFF7F0FE57F825301C601C6844B12046D5
:20662000FFF7B6FD2046BDE8F840B021FFF733BFF8BD00BFE098000898050020FCF712BE41
:20664000704708B5FCF702FEFCF797FEFFF7F8FF08BD70470F4B84B0DA6942F08052DA61D2
:20666000DA6902F080520192019A9A6942F001029A619A6902F001020292029A5A6942F095
:2066800040025A615B6903F040030393039B04B0704700BF001002400C4BD3F8FC20D20142
:2066A0005EBFD3F8FC2042F08072C3F8FC200022074B5A601A6842F001021A6000BF00BFFE
:2066C00000BF5868B0FA80F04009704700ED00E0001000E008B5FFF7BDFFFFF7DDFFFCF730
:2066E000A3FDFFF7B6FF00F05DFFBDE808400148FCF748BE200000200023C0E90033C0E9EC
:20670000023370472DE9F043164600270A468BB0012A07F101046ED1CDE902130023FF29B9
:2067200098BF02461D461C464FF0010C88BF021D0CFA03FE714505D11D46FF294FEA830465
:2067400088BF203C0133102BF2D10F231268A34013400822A240934250D10123C268AB4047
:2067600093430CBF0123022304930323142402A90593FCF781FE0023FFB27C43DFF8848017
:20678000D6F80890043406AD06934444C5E901330993B9F1000F33D0022231462846C84735
:2067A000D6E9029C95E8030014267E43CDE9000108EB0603043393E8030085E80300DDE963
:2067C000000183E80300A36828460893E368C4F80890C4F80CC00993F9F75DFD00220621E0
:2067E00018F90600FCF756FD18F90600FCF782FD0BB0BDE8F0832746520889E70023B3E7EC
:20680000CC46CFE7A80500200023012803F101020AD11422DBB25343054A181D10448168AB
:2068200029B11A441369184713464008EDE77047A80500200120FCF7F3BE0220FCF7F0BEC4
:206840000420FCF7EDBE0820FCF7EABE1020FCF7E7BE08B52020FCF7E3FE4020FCF7E0FEE9
:206860008020FCF7DDFE4FF48070FCF7D9FEBDE808404FF40070FCF7D3BE38B506244FF42F
:206880008065A8B2FCF7CCFE013C4FEA4505F8D138BD0000344A08B51046062300F8043B8D
:2068A000FFF72AFF072302F118001375FFF724FF082302F12C0082F82830FFF71DFF092389
:2068C00002F1400082F83C30FFF716FF0A23172102F1540082F85030FFF70EFF02F1680090
:2068E00082F86410FFF708FF02F17C0082F87810FFF702FF02F1900082F88C10FFF7FCFEBC
:2069000002F1A40082F8A010FFF7F6FE82F8B410282102F1B800FFF7EFFE02F1CC0082F87E
